S01400006D6F746F724162616E69636F2E7372656332
S11300000C9434000C9446000C9446000C94460066
S11300100C9446000C9446000C9446000C94460044
S11300200C9446000C9446000C9446000C94460034
S11300300C9446000C9446000C9446000C94460024
S11300400C9446000C9446000C94C6000C94460094
S11300500C9446000C9446000C9446000C94460004
S11300600C9446000C94460011241FBECFEFD8E038
S1130070DEBFCDBF21E0A0E0B1E001C01D92A930F8
S1130080B207E1F70E9498000C9408010C94000058
S1130090E0ECF0E08081808380818083E1ECF0E01B
S11300A08081886080838081806180838081808377
S11300B080818083808180688083E2ECF0E08081AD
S11300C08083808180838081808380818660808337
S11300D08081808387E690E09093C5008093C4007C
S11300E008958091C00088231CF48091C60008956F
S11300F080E0089584B1826084B9E0E8F0E0808112
S11301008068808380818083E1E8F0E08081806181
S113011080838081816080838FEF9FEF909387003D
S11301208093860010928900109288007894089534
S11301300E9448000E947A0080910601882371F091
S11301408091080190E0982F882720910701822B45
S113015090930301809302011092060180910201A1
S113016090910301209100013091010182179307BE
S113017019F39093890080938800809102019091F3
S113018003019093010180930001D6CF1F920F9237
S11301900FB60F9211242F933F934F935F936F9356
S11301A07F938F939F93AF93BF93EF93FF9380912C
S11301B00401909105010196909305018093040137
S11301C0019721F40E94710080930701809104013A
S11301D090910501029759F40E94710080930801DF
S11301E081E0809306011092050110920401FF91B1
S11301F0EF91BF91AF919F918F917F916F915F919B
S11302004F913F912F910F900FBE0F901F90189513
S1070210F894FFCF8C
S9030000FC
